:020000040800F2
:10000000A8F20020DD010008015A0008512500086F
:10001000835900088D0D0008B18E00080000000013
:100020000000000000000000000000004501000882
:100030005915000800000000890100082780000809
:10004000F7010008F7010008F7010008F7010008B0
:10005000F7010008F7010008F7010008491B000834
:10006000F7010008F7010008F7010008F701000890
:10007000F7010008F7010008F7010008F701000880
:10008000F7010008F7010008F7010008F701000870
:10009000F7010008F7010008F7010008F701000860
:1000A000F7010008ED800008F7010008F7010008DB
:1000B00015810008F7010008F7010008F7010008A2
:1000C000F7010008F7010008F7010008F701000830
:1000D000F7010008598600087D870008B9870008E5
:1000E000F7010008F7010008F7010008F701000810
:1000F000F7010008F7010008F7010008F701000800
:10010000F701000819610008F7010008F70100086D
:1001100001850008F7010008F70100087582000852
:10012000F7010008F7010008F7010008F7010008CF
:10013000DFF80CD000F0EAFC00480047CDBE000814
:10014000A8F20020224B19680868B0E8F00F80F38D
:100150000988BFF36F8F4FF0000080F311884EF0D5
:100160000D0E70470000000006480068006880F32C
:10017000088862B661B6BFF34F8FBFF36F8F00DFA1
:1001800000BF00BF08ED00E0EFF30980BFF36F8F01
:100190000F4B1A6820E9F00F106008B54FF05000BF
:1001A00080F31188BFF34F8FBFF36F8F0EF0E8F825
:1001B0004FF0000080F31188BDE808401968086816
:1001C000B0E8F00F80F30988BFF36F8F704700BF6E
:1001D00020000020EFF305807047000006488047AC
:1001E00006480047FEE7FEE7FEE7FEE7FEE7FEE71C
:1001F000FEE7FEE7FEE7FEE7398000083101000870
:100200002DE9F0410024061B254671F1000605DAB0
:1002100001240027D0EB070067EB0101161E73F1E4
:10022000000605DA0027D2EB0702012567EB03037E
:1002300000F0FCF986460E4617469C46AC4204D0B8
:100240000025D0EB050E65EB010624B10020D2EBB2
:10025000000760EB030C704631463A466346BDE842
:10026000F08140EA01039B0703D009E008C9121F8F
:1002700008C0042AFAD203E011F8013B00F8013B60
:10028000521EF9D27047D2B201E000F8012B491E8C
:10029000FBD270470022F6E710B513460A46044623
:1002A0001946FFF7F0FF204610BD421E12F8013F2D
:1002B000002BFBD111F8013B02F8013B002BF9D1D7
:1002C000704730B505462A460B4612F8010B13F865
:1002D000014B08B1A042F8D01CB1002802D06D1C1F
:1002E000F1E7284630BD10B5044604E00B7800F86D
:1002F000013B03B1491C521EF8D2204610BD421CDE
:1003000010F8011B0029FBD1801A7047034611F831
:10031000012B00F8012B002AF9D1184670472DE96E
:10032000F04791460F4680460446002614F8015BCC
:100330002DB100F0BDF90068405DC007F6D12B2D4E
:1003400002D02D2D18D0641E4A463946204600F0B2
:10035000B3F927B13968A14201D1C7F8008071050E
:100360004FF002040BD54042002803DD08F0B2FF35
:100370000460A007BDE8F08746F48066E4E7002843
:10038000F8DA08F0A7FF04606FF00040F2E770B5FC
:10039000064608F09FFF046805460A220021304601
:1003A000FFF7BDFF2C6070BD80EA010210B502F0BE
:1003B0000043400022D04A001FD0010E01EB126121
:1003C000C0F35600C2F3560240F4000042F40002AB
:1003D000A0FB022000047F39140400D0401C50EA26
:1003E000124001D44000491EC2B20C0604EBD010EA
:1003F000401C4008802A02D003E0002010BD20F0FD
:100400000100002900DA0020184310BD30B480EA52
:10041000010202F0004530F0004221F0004013D00C
:1004200090B1C30DD40DC2F31601C0F31600E41A47
:1004300041F4000140F400027D34914201D3641C78
:1004400000E04900002C02DA30BC002070474FF475
:1004500000000023914201D3891A034340084FEA68
:100460004101F7D151B1914202D14FF0004105E075
:1004700002D24FF0010101E06FF0010103EBC45023
:10048000284430BC00F067B92DE9FE4F81EA03042F
:1004900004F0004421F0004100944FF0000B23F0E1
:1004A000004350EA01045ED052EA03045BD0C3F378
:1004B0000A54C1F30A552C44A4F2F3340194A0FB6E
:1004C0000254C1F3130141F48011C3F3130343F445
:1004D000801301FB024400FB034E840A970A44EA9E
:1004E000815447EA8357A4FB076802958D0A05FBF0
:1004F00007854FEA932C04FB0C542705029D4FEA15
:10050000065847EA1637B5EB08056EEB070C870E61
:10051000920E47EA811742EA8312A7FB0201B6EB6B
:100520000B0164EB00042B0D43EA0C335E1844EB23
:100530001C50DA465146E7FB0201C5F313044FEAAB
:100540000B3343EA14534FEA0432019C43EA060397
:10055000A4F10C040294009CCDE900B400F041F930
:1005600003B0BDE8F08F00200146F9E79623002292
:10057000114600F0F9B80EB540F233410291002166
:10058000CDE900110A460B4600F02BF903B000BD7F
:1005900020F00040C10DC0F3160040F400007F2998
:1005A00001DA00207047962903DCC1F19601C840AA
:1005B0007047963988407047C1F30A5210B5C1F3AD
:1005C000130140F2FF3341F480119A4201DA002016
:1005D00010BD40F233439A42A2F2334203DC52424E
:1005E00000F055F810BD904010BD0000002801DB60
:1005F000C0F10040002901DBC1F100418142704798
:1006000030B50B46014600202022012409E021FAE2
:1006100002F59D4205D303FA02F5491B04FA02F5DF
:100620002844151EA2F10102F1DC30BD2DE9F05F76
:100630000546002092469B46884606468146402451
:100640001BE0284641464746224600F020F8534624
:100650005A46C01A914110D311461846224600F05E
:1006600067FA2D1A67EB01084F4622460120002148
:1006700000F05EFA17EB00094E41201EA4F10104C0
:10068000DFDC484631462A464346BDE8F09F202A33
:1006900004DB203A21FA02F00021704721FA02F32C
:1006A000D040C2F120029140084319467047000033
:1006B00000487047D44401082DE9F05F8246007875
:1006C000002715468B460AF10104B946302801D0AF
:1006D0009DB113E014F8010B0127782803D05828A6
:1006E00001D045B10AE00DB1102D07D1002710252A
:1006F00014F8010B02E0082500E00A250026B046A8
:100700000EE005FB080005FB06F1012701EB104692
:100710001FFA80F8B6F5803F00D3B94614F8010BF4
:10072000294600F026FA0028EBDABBF1000F05D0CD
:100730000FB1641E00E05446CBF80040B9F1000F41
:1007400006D008F0C7FD02210160C81EBDE8F09F79
:1007500048EA0640FAE70029A8BF7047401C490054
:1007600008BF20F00100704710B4B0FA80FC00FA16
:100770000CF050EA010404BF10BC704749B1CCF141
:10078000200421FA04F411FA0CF118BF01212143CD
:100790000843A3EB0C01CB1D4FEA00614FEA102088
:1007A00042BF002010BC704700EBC350104400292A
:1007B000A4BF10BC7047401C490008BF20F00100D6
:1007C00010BC704710B5141E73F1000408DA401C09
:1007D00041F1000192185B411A4301D120F0010060
:1007E00010BD2DE9F04D92469B4611B1B1FA81F250
:1007F00002E0B0FA80F22032904600F099F9044607
:100800000F4640EA0A0041EA0B0153465A460843A4
:1008100013D0114653EA010019D0C8F140025046E6
:10082000FFF735FF05460E4650465946424600F052
:100830007FF9084305D0012004E020463946BDE891
:10084000F08D0020054346EAE0762C4337430A98B2
:100850006305E40AA0EB08000022FD0A44EA4754BD
:100860000A3002D500200146E9E701051019694167
:10087000DDE9084500196941BDE8F04DA2E72DE921
:10088000FE4F804681EA0300C00F0C46009021F025
:10089000004123F00045B8EB0200A94105D24046D3
:1008A000214690461C460B46024623F0004010436A
:1008B00047D0270DC7F30A00C3F30A510290401A2C
:1008C000019040286BDAC3F3130040F4801B0098BA
:1008D000924620B10023D2EB030A63EB0B0B019885
:1008E0005946C0F14002504600F022F906460D4636
:1008F00050465946019A00F02AF910EB0800614170
:10090000002487EA115284EAE7731A4340D0009A20
:1009100062B3019A012A4FEA075215DC001B61EB12
:1009200002014FF0004202EA0752CDE90042001CEA
:1009300041F5801132462B46FFF753FF03B0BDE867
:10094000F08F40462146F9E7001B61EB0201001CD5
:1009500041F5801300185B412018A2F5001747EB02
:10096000030140EAD570B6196D4111E06D084FEAF8
:10097000360645EAC0754FEA0752001B61EB0201DB
:10098000001C41F5801149084FEA3000001951411F
:1009900032462B4603B0BDE8F04FFFF713BF009877
:1009A000012240000023D0EB020263EBE0730098C9
:1009B00021464FEAE074B8EB000061EB0401E9E77F
:1009C00083F000435BE781F0004158E72DE9F04DEB
:1009D00081EA030404F0004B21F0004514464FF077
:1009E000000A23F0004150EA050220D054EA010237
:1009F0001DD0C5F30A570246C5F31303C1F3130014
:100A0000C1F30A5640F4801543F48013A7EB06089F
:100A1000101BD64608F2FD3873EB050002D308F12F
:100A2000010801E092185B41B8F1000F03DA0020E1
:100A30000146BDE8F08D00204FF480110646844643
:100A40000EE0171B73EB050705D3121B63EB0503C1
:100A500006434CEA010C49084FEA300092185B410A
:100A600050EA0107EDD152EA030012D082EA0400F5
:100A700083EA0501084305D0101BAB4106D20122D1
:100A8000002306E000224FF0004302E06FF0010275
:100A900053101AEB06004CEB085110EB0A0041EB27
:100AA0000B01BDE8F04DFFF78DBEC1F30A52C1F353
:100AB000130140F2FF3341F480119A4202DA002020
:100AC0000146704740F233439A42A2F2334202DCBD
:100AD0005242FFF7DCBD00F02BB8000030B5041E19
:100AE00071F1000404DB4FF00044404264EB01016B
:100AF000141E73F1000405DB1C464FF00043524204
:100B000063EB0403994208BF904230BD064C074D89
:100B100006E0E06840F0010394E8070098471034CD
:100B2000AC42F6D3FFF708FB144D0108344D010821
:100B3000202A04DB203A00FA02F10020704791409D
:100B4000C2F1200320FA03F3194390407047202A92
:100B500006DBCB17203A41FA02F043EAE07306E0E5
:100B600041FA02F3D040C2F12002914008431946F5
:100B700070473A2800D2303820F02002412A01D3B1
:100B8000A2F13700884201D34FF0FF30704730B5F3
:100B90008C1810F8012B12F00F0301D110F8013B53
:100BA000120906D110F8012B03E010F8015B01F8DF
:100BB000015B5B1EF9D101E001F8013B521EFBD144
:100BC000A142E6D3002030BD21B1826842F001028B
:100BD000826003E0826822F0010282607047014671
:100BE00000208A6802F004020AB1012000E000201F
:100BF00070470146C86C80B27047024600201368F7
:100C00000B400BB1012000E000207047014600209E
:100C10008A6802F008020AB1012000E00020704753
:100C200030B502460020002350680F4C20400D795B
:100C30000C6844EA05242043506090680B4C204027
:100C4000D1E902542C434D7944EA45042043906095
:100C5000D06A20F470000C7C641EE4B2234340EAA6
:100C60000350D06230BD0000FFFEF0FFFDF7F1FF42
:100C7000F0B504460D4600200021092D11DDE06885
:100C8000A5F10A0606EB4607072606FA07F1884390
:100C9000A5F10A0606EB460603FA06F10843E060F2
:100CA0000CE0206905EB4507072606FA07F18843A3
:100CB00005EB450603FA06F108432061072A0FDA1F
:100CC000606B561E06EB86071F2606FA07F188435F
:100CD000561E06EB860605FA06F10843606322E01D
:100CE0000D2A0FDA206BD61F06EB86071F2606FAA1
:100CF00007F18843D61F06EB860605FA06F108437E
:100D0000206310E0E06AA2F10D0606EB86071F26BD
:100D100006FA07F18843A2F10D0606EB860605FAEE
:100D200006F10843E062F0BD816841F0080181608E
:100D3000704721B1826842F4A002826003E08268B9
:100D400022F4A00282607047816841F00401816052
:100D50007047000008B50121082004F0FFFF4FF4A0
:100D60008070ADF8000010208DF8030003208DF88E
:100D700002006946044801F0BBF94FF48071024853
:100D800001F093FA08BD0000000C014000BFFEE72F
:100D900010B5FF210448FFF77DFA002003490880C1
:100DA0000349087010BD0000E5D800205C01002058
:100DB0005E01002070B500254FF4803404E08020EF
:100DC00005F096F900B103E0201EA4F10104F6D16C
:100DD00000BF0CB9032070BD40F2FF5005F042F98E
:100DE0002846F8E770B5044605E01548456B05F060
:100DF000450000B100E0F8E700BF042005F078F9F5
:100E000020B1042005F02EF9032070BD012005F06B
:100E10006FF920B1012005F025F90120F5E7084818
:100E20000069A04201D01020EFE740F2FF500449D2
:100E300088630846406908210840C0B2E5E7000021
:100E40000080014070B500264FF4803505E0114860
:100E5000446B04F0450000B103E0281EA5F1010534
:100E6000F5D100BF15B104F0040028B10326042019
:100E700005F0F8F8304670BD012005F039F918B1D9
:100E80000126012005F0EEF840F2FF5005F0EAF8E7
:100E90003046F0E70080014010B505E00B48446B98
:100EA00004F0450000B100E0F8E700BF042005F0C1
:100EB0001FF920B1042005F0D5F8032010BD40F241
:100EC000FF5005F0CFF80020F8E700000080014057
:100ED0002DE9F04105460E464FF0000805E01F4899
:100EE000476B07F0450000B100E0F8E700BF0420C1
:100EF00005F0FEF828B1042005F0B4F80320BDE8A1
:100F0000F081012005F0F4F820B1012005F0AAF8E5
:100F10000120F4E711480069A84201D01020EEE753
:100F200040F2FF5005F09EF80C48446904F460401C
:100F300018B9200C30804046E1E704F4005008B1B5
:100F40001320DCE704F4804008B11020D7E704F454
:100F5000004008B10F20D2E74046D0E700800140B2
:100F600070B500264FF4803505E00F48446B04F05F
:100F7000450000B103E0281EA5F10105F5D100BF31
:100F800015B104F0040028B10326042005F06AF826
:100F9000304670BD04F0400018B10026402005F036
:100FA00061F83046F5E70000008001402DE9F0418E
:100FB000A0B006460F460024002580216846FFF7B2
:100FC00069F900BF0BE000F08DFD20B937A008F0F3
:100FD0004BF9002505E04FF0FF35601CC4B2032C2F
:100FE000F1DB00BF002D03DA284620B0BDE8F08118
:100FF000002417E034A137A000F02AFD70B936A014
:1010000008F032F9002500203B490860642009F00F
:10101000C3F901203949C1F8940105E06FF00105D9
:10102000601CC4B2062CE5DB00BF002D01DA2846A7
:10103000DBE700241BE044F6206131A000F074FBE4
:1010400070B933A008F010F900203B490860642013
:1010500009F0A2F901203949C1F89401002508E0FE
:101060006FF0020536A008F0FFF8601CC4B2032C34
:10107000E1DB00BF002D01DA2846B6E73B463246E9
:1010800039A1684608F000F96846FFF738F900F022
:10109000FF084146684600F0E9FA3FA008F0E4F88E
:1010A00044A008F0E1F828469FE700004553503877
:1010B000323636C9E8D6C3535441C4A3CABDB3C9F6
:1010C000B9A60D0A00000000313233343536373806
:1010D000000000003636360045535038323636C9E7
:1010E000E8D6C3C8C8B5E3C3FBB3C6BACDC3DCC238
:1010F000EBB3C9B9A60D0A009481214200802142B8
:101100003139322E3136382E312E31303500000053
:10111000C9E8D6C35345525645525F4950BACD53DC
:1011200045525645525F504F5254A3A8544350A3C2
:10113000A9B3C9B9A60D0A009401234200002342B5
:10114000C9E8D6C35345525645525F4950BACD53AC
:1011500045525645525F504F5254A3A8544350A392
:10116000A9CAA7B0DC0D0A007B2274223A312C22D6
:10117000746167223A222573222C226B6579223A08
:10118000222573222C22766572223A2276302E3066
:101190002E302E30227D0000B7A2CBCD446576697B
:1011A000636549442C5365637265744B65790D0A18
:1011B00000000000B7A2CBCDC9E8B1B8C3DCD4BFF2
:1011C000B3C9B9A60D0A000010B54FF4004102489A
:1011D00001F062F810BD00000008014008B50121CF
:1011E000042004F0BBFD0121084604F0B7FD4820AF
:1011F0008DF803004FF40040ADF8000003208DF897
:1012000002006946014800F073FF08BD0008014074
:1012100010B500241548006820F470401349086098
:101220000846006840F40040086004E0601CC4B256
:10123000012009F0D1F80E48006808B1642CF5DBF4
:10124000642C01DB012010BD002404E0601CC4B24A
:10125000012009F0C1F80648006808B9642CF5DBE4
:10126000642C01DB0120EEE70020ECE704080140DC
:101270002C01214208B50121042004F06FFD4FF438
:101280000060ADF8000010208DF8030003208DF8F9
:1012900002006946064800F02BFF4FF40061044845
:1012A00001F005F800F068F8FFF7B2FF08BD000094
:1012B0000008014010B5002404E0601CC4B2012005
:1012C00009F08AF80D48006808B1642CF5DB0024A9
:1012D00004E0601CC4B2012009F07EF807480068F1
:1012E00008B9642CF5DB282009F076F8034800687B
:1012F00008B1012010BD0020FCE700002C012142B4
:1013000070B50024002506E06006040EFFF7D2FF4A
:101310000443681CC5B2082DF6DB204670BD7CB5C1
:1013200005460E4600F028F8FFF772FFF8B90024D2
:1013300005E0FFF7E5FF0DF80400601CC4B2052CC2
:10134000F7DB9DF800009DF8011008449DF802109D
:1013500008449DF8031008449DF80410884208D101
:101360009DF8000030709DF80200287001E0012017
:101370007CBD0020FCE7000010B50C48006820F49C
:1013800070400A4908600846006840F44050086010
:10139000002007490860142008F0FEFF01200549DD
:1013A000C1F8AC011E2009F017F810BD0408014077
:1013B000AC0121420000214221B1026842F0010249
:1013C000026004E002684FF6FE731A400260704744
:1013D00001684FF6FE72114001600021016041601A
:1013E0008160C1604B49884208D14A49083949683F
:1013F00041F00F01474A083A51608AE045491431EB
:10140000884208D143490839496841F0F001414A0E
:10141000083A51607DE03F492831884208D13D4972
:101420000839496841F470613A4A083A516070E0FD
:1014300038493C31884208D136490839496841F475
:101440007041344A083A516063E032495031884271
:1014500008D130490839496841F470212D4A083AC9
:10146000516056E02B496431884208D12949083936
:10147000496841F47001274A083A516049E025491A
:101480007831884208D123490839496841F07061B0
:10149000204A083A51603CE01F49884206D1011FAA
:1014A000096841F00F01021F116032E01A4914313E
:1014B000884208D11849091F096841F0F001164A0D
:1014C000121F116025E014492831884208D11249C1
:1014D000091F096841F470610F4A121F116018E07A
:1014E0000D493C31884208D10B49091F096841F474
:1014F0007041094A121F11600BE0074950318842C0
:1015000007D10549091F096841F47021024A121FD9
:1015100011607047080002400804024010B5002224
:10152000026847F6F0739A430C6A8B6823430C6990
:1015300023434C6923438C692343CC6923434C6A7E
:1015400023438C6A23431A430260CB6843600B68D1
:1015500083604B68C36010BD70472DE9FC4F0746A0
:10156000884614469946DDF82CB02046E11704EB76
:1015700051714FEAE10A002520E007261BE00C9894
:10158000405D304100F00100A0B195FBFAF040440D
:1015900080B2019095FBFAF00AFB1050082101FB84
:1015A0000070C01D801B80B21FFA8BF20090019961
:1015B00001F034F9761E002EE1DA6D1C04FB09F00F
:1015C000C11700EB5171B5EBE10FD6DBBDE8FC8F25
:1015D0002DE9F04107460E460024002515A007F02E
:1015E00043FE19A13846FEF76CFE0446FCB112A07A
:1015F00007F03AFEA1796079303800EB800001EB0A
:1016000040003038C5B212A13846FEF75AFE441CDD
:101610002A4621463046FEF724FE0020705531460A
:101620000C4807F021FE29460BA007F01DFE2846B6
:10163000BDE8F081BFAACABCBDD3CAD5CAFDBEDD14
:10164000B1A80D0A000000002B4950442C000000F6
:101650003A000000C4480108CAD5B5BD4950CAFDCA
:10166000BEDDB3A4B6C83D25640D0A002DE9F041E6
:10167000A0B006460D460024002780216846FEF7EC
:1016800009FE2A4620A1684607F0FEFD6846FEF7DF
:1016900036FE00F0FF084146684606F0F3FA0320E4
:1016A00008F07AFE00BF27E01BA11C48FEF709FEE8
:1016B00010B94FF0FF371AE0FFF76AFB29463046B2
:1016C00006F0EEFA00240EE015A11448FEF7F9FD2D
:1016D00010B96FF0010701E0002706E0022008F0D2
:1016E0005BFE601CC4B23C2CEEDB00BF06E00220B7
:1016F00008F052FE601CC4B23C2CD5DB00BF38465B
:1017000020B0BDE8F081000041542B4349505345BF
:101710004E443D25640000004F4B0000E5D80020FA
:1017200053454E44204F4B0070B5A0B004460D46C3
:1017300080216846FEF7AEFDFFF72AFB2B462246C6
:101740000DA1684607F0A0FD6846FEF7D8FDC6B2B9
:101750003146684606F096FA40F2DC5008F01CFE6E
:101760000CA10D48FEF7ADFD18B94FF0FF3020B0C9
:1017700070BD0020FBE7000041542B4349505354F7
:101780004152543D22544350222C222573222C25B1
:10179000640000004F4B0000E5D800202DE9F04127
:1017A000A2B080460D4614460026802102A8FEF70E
:1017B00071FD2A46864902A8236807F065FD85A0C9
:1017C00007F052FD8D480068231D221D8C490090B2
:1017D00002A807F059FD02A8FEF791FDC7B23946ED
:1017E00002A8FFF743FF854800680090231D854944
:1017F00002A8626B07F048FD02A8FEF780FDC7B2A1
:10180000394602A8FFF732FF7C4800680090231D8C
:101810007D4902A8626A07F037FD02A8FEF76FFD56
:10182000C7B2394602A8FFF721FF7448006800904C
:10183000231D764902A8A26B07F026FD02A8FEF739
:101840005EFDC7B2394602A8FFF710FF6B4800687B
:101850000090231D6E4902A8E26B07F015FD02A857
:10186000FEF74DFDC7B2394602A8FFF7FFFE6348F9
:1018700000680090231D674902A8226C07F004FD50
:1018800002A8FEF73CFDC7B2394602A8FFF7EEFEFC
:101890005A4800680090231D5F4902A8626C07F057
:1018A000F3FC02A8FEF72BFDC7B2394602A8FFF7EA
:1018B000DDFE524800680090231D584902A8E26AE4
:1018C00007F0E2FC02A8FEF71AFDC7B2394602A8EB
:1018D000FFF7CCFE494800680090231D504902A83C
:1018E000226B07F0D1FC02A8FEF709FDC7B239460A
:1018F00002A8FFF7BBFE414800680090231D49493C
:1019000002A8A26A07F0C0FC02A8FEF7F8FCC7B262
:10191000394602A8FFF7AAFE384800680090231D48
:10192000414902A8A26C07F0AFFC02A8FEF7E7FC51
:10193000C7B2394602A8FFF799FE30480068009008
:10194000231D3A4902A8E26C07F09EFC02A8FEF7AC
:10195000D6FCC7B2394602A8FFF788FE27480068C0
:101960000090231D324902A8226D07F08DFC02A8C9
:10197000FEF7C5FCC7B2394602A8FFF777FE1F483D
:1019800000680090231D2B4902A8A26E07F07CFC82
:1019900002A8FEF7B4FCC7B2394602A8FFF766FEFC
:1019A000164800680090231D234902A8626E07F0C4
:1019B0006BFC02A8FEF7A3FCC7B2394602A8FFF7EA
:1019C00055FE1EA007F050FC304622B0BDE8F08165
:1019D000D04C0108C9CFB1A8C9E8B1B84944B3C9CE
:1019E000B9A620BFAACABCB7A2CBCDB4ABB8D0C6EB
:1019F000F7C9E8B1B8CAFDBEDD0D0A001401002028
:101A000030480108644B0108A849010878480108DA
:101A10003C4A01086049010818490108844A010844
:101A2000F44B01083C4C0108F4490108A84B01089B
:101A3000884C0108D04A01081C4B0108C9CFB4AB3F
:101A4000C1CBD2BBB4CECAFDBEDD0D0A0000000082
:101A500070B5A0B004460D4680216846FEF71AFC1A
:101A6000FFF796F92B4622460EA1684607F00CFCBC
:101A70006846FEF744FCC6B23146684606F002F9F5
:101A800040F2DC5008F088FC0CA10D48FEF719FC70
:101A900030B90CA007F0E8FB4FF0FF3020B070BD6C
:101AA0000020FBE741542B43574A41505F435552B6
:101AB0003D222573222C2225732200004F4B00006B
:101AC000E5D8002045535038323636C9E8D6C3C869
:101AD000C8B5E3C3FBB3C6BACDC3DCC2EBCAA7B07B
:101AE000DC0D0A0010B5FFF753F90F2109A006F02D
:101AF000C9F8642008F050FC0AA10B48FEF7E1FB8E
:101B000028B90AA007F0B0FB4FF0FF3010BD00204D
:101B1000FCE7000041542B43574D4F44455F43556C
:101B2000523D33004F4B0000E5D80020455350385C
:101B3000323636C9E8D6C3535441C4A3CABDCAA776
:101B4000B0DC0D0A0000000010B5022000F020F803
:101B5000012812D10221094800F09EFB50B904214E
:101B6000064800F099FB28B905480088401C00B2DF
:101B700003490880022000F005F810BD001C014058
:101B800076010020014908607047000014040140FC
:101B9000014600200022074B1B6803EA0102054BA7
:101BA00014331B680B4013B10AB1012000E0002080
:101BB0007047000000040140002123498279002A77
:101BC0003AD00A46126803689A430B461A600A1D07
:101BD000126803689A430B1D1A60027911440A685F
:101BE00003681A430A60184A0832126803689A4365
:101BF000154B08331A601A1D126803689A43124B7A
:101C00000C331A604279102A0ED11A1F1268036829
:101C10001A430D4B08331A601A1D126803681A43E1
:101C2000094B0C331A600DE00749427911440A68E8
:101C300003681A430A6005E0027911440A680368E0
:101C40009A430A6070470000000401400548B0F95B
:101C50000000152802DD0020024908800148B0F983
:101C600000007047760100201FB50121802004F09C
:101C700075F80121084604F071F848208DF80F002E
:101C80000620ADF80C0003208DF80E0003A91648BD
:101C900000F02EFA0121052000F00AFA02210520A9
:101CA00000F006FA0620019001208DF80A000020BD
:101CB0008DF808000C208DF8090001A8FFF77CFFC3
:101CC0004FF4A06003F0D6FE07208DF8000001203D
:101CD0008DF803008DF8010002208DF8020068469F
:101CE00003F090FE1FBD0000001C014030B504460B
:101CF00004254FF4302000F06FF80546042D17D16D
:101D00000C48006940F002000A4908610846446135
:101D1000006940F0400008614FF4302000F05CF8AA
:101D200005460448006941F6FD7108400149086113
:101D3000284630BD0020024004200B49C96801F04C
:101D4000010109B101200EE00749C96801F0040151
:101D500009B1022007E00449C96801F0100109B186
:101D6000032000E00420704700200240034800697F
:101D700040F08000014908617047000000200240E7
:101D800070B504460D460426F00200F025F806461C
:101D9000042E11D10948006940F00100074908618B
:101DA0002580F00200F018F806460448006941F664
:101DB000FE71084001490861304670BD00200240B4
:101DC000024803494860034848607047230167455B
:101DD00000200240AB89EFCD00B502460423FFF797
:101DE000ABFF034603E0FFF7A7FF0346521E012B9C
:101DF00001D1002AF7D102B90523184600BD000021
:101E000051B18200A2F1C042126842F00103820087
:101E1000A2F1C042136009E08200A2F1C042126840
:101E2000034B1A408300A3F1C0431A6070470000BF
:101E3000FEFF0F00D0E901121143C268114302698D
:101E400011434269114382691143C2691143026A15
:101E50001143426A1143826A1143C26A1143026B01
:101E6000114302689200A2F1C04211608168082902
:101E70000BD101688900A1F1C041096841F040021D
:101E800001688900A1F1C0410A60416B0968426B99
:101E9000526841EA0211426B926841EA0221426BA8
:101EA000928941EA0241426B128A41EA0251426B35
:101EB000127D41EA0261426B926911430268521C31
:101EC0009200A2F1C0421160C16AB1F5804F1BD1EE
:101ED000816B0968826B526841EA0211826B9268D9
:101EE00041EA0221826B128A41EA0251826B127D21
:101EF00041EA0261826B9269114302689200A2F189
:101F0000C042C2F8041107E06FF070420168890016
:101F1000A1F1C041C1F80421704700002DE9FC4146
:101F200007460D460026002400200090019008205E
:101F30005B49086010204860402088600020C8602D
:101F40004FF480600861084604F008F91020FEF79D
:101F500049FF044614B12046BDE8FC815148008881
:101F600000044F4908603720486040208860002006
:101F7000C8604FF480600861084604F0EFF837202D
:101F8000FEF730FF04460CB12046E5E74FF0FF3086
:101F90004549086008204860302088600220C860F9
:101FA0000020086101204861084604F077F800200D
:101FB0003B49086033204860402088600020C860AA
:101FC0004FF480600861084604F0C8F83320FEF73B
:101FD00009FF04460CB12046BEE70CE04FF40010A8
:101FE00004F086F838B104F0B3F84DF82600761CFA
:101FF000022E00D306E02D48406B40F22A610840D3
:102000000028EBD000BF082004F072F820B10820AF
:1020100004F028F804209FE7022004F069F820B1BA
:10202000022004F01FF8022096E7202004F060F858
:1020300020B1202004F016F806208DE74FF4007040
:1020400004F056F828B14FF4007004F00BF80720A4
:1020500082E740F2FF5004F005F80098000600996E
:1020600001F47F4140EA0120009901F47F0140EA38
:102070001120009940EA11606860019800060199FA
:1020800001F47F4140EA0120019901F47F0140EA17
:102090001120019940EA1160286020465CE70000A9
:1020A00000DA00206801002014DA002000800140DE
:1020B00030B500228B071C0F0F2303FA04F20B4BE1
:1020C0008C1053F824309343084C8D1044F825307D
:1020D00023468C1053F824308C07240F00FA04F4A4
:1020E0002343024C8D1044F8253030BD08000140D8
:1020F0002DE9F0410246002500260020002300249F
:10210000002791F803C00CF00F0591F803C00CF004
:10211000100CBCF1000F03D091F802C04CEA050589
:1021200091F800C0BCF1000F31D0146800202BE002
:102130004FF0010C0CFA00F3B1F800C00CEA0306F2
:102140009E4220D183004FF00F0C0CFA03F7BC43E2
:1021500005FA03FC4CEA040491F803C0BCF1280F13
:1021600006D14FF0010C0CFA00FCC2F814C00AE0D2
:1021700091F803C0BCF1480F05D14FF0010C0CFAE7
:1021800000FCC2F810C0401C0828D1D31460B1F87C
:1021900000C0BCF1FF0F34DD546800202EE000F1D8
:1021A000080C4FF0010808FA0CF3B1F800C00CEA73
:1021B00003069E4221D183004FF00F0C0CFA03F767
:1021C000BC4305FA03FC4CEA040491F803C0BCF1DB
:1021D000280F05D100F1080C08FA0CF8C2F8148099
:1021E00091F803C0BCF1480F07D100F1080C4FF083
:1021F000010808FA0CF8C2F81080401C0828CED359
:102200005460BDE8F0810000F0B50A4600230024C8
:102210000021002500F00046B6F1004F02D11D4E0E
:10222000F16901E01B4E7168C0F3034583B200F40D
:102230004016B6F5401F08D121F07061154E766842
:1022400026F07066134F7E6012E000F48016B6F53B
:10225000801F06D1032606FA05F4A14341F0706100
:1022600006E0460D360103FA06F6B14341F070610F
:1022700022B1460D360103FA06F6314300F000465E
:10228000B6F1004F02D1034EF16101E0014E7160E1
:10229000F0BD0000000001400246002093680B40A2
:1022A0000BB1012000E000207047416170470161DF
:1022B00070470AB1016100E0416170472DE9F843C0
:1022C00006468846144699462048864201D104278E
:1022D0000BE01F48864201D1082706E01D488642D0
:1022E00001D1102701E0BDE8F8830CB904251CE0FA
:1022F000012C01D1482518E0022C01D1282514E039
:10230000032C01D1002510E0052C01D110250CE093
:10231000062C01D1142508E0072C01D1182504E072
:10232000082C01D11C2500E0DDE7ADF800808DF818
:1023300003508DF802900121384603F00FFD6946E5
:102340003046FFF7D5FE00BFCDE700000008014092
:10235000000C0140001001402DE9F05F82460F465D
:1023600014462046E21704EB5272D2102146E317BE
:1023700004EB5373DB10A4EBC3030BB1012300E0A8
:1023800000231A44624302F0FF099AF800600AF140
:10239000010082460578812E05DB402D03DBFF2DF1
:1023A00001D0FF2E0DD14FF0000B06E0002007F802
:1023B000010B0BF1010000F0FF0BCB45F6DBBDE894
:1023C000F09F7F2D03DAA5F14000C5B202E0A5F130
:1023D0004100C5B2A6F18100C6B2BE2000FB065086
:1023E00000FB09F80C2C04D0102C0CD0182C1ED19A
:1023F00013E01048D0F8090000EB08014A463846BF
:1024000006F00CFE13E00B48D0F8110000EB0801B9
:102410004A46384606F002FE09E00648D0F81900A0
:1024200000EB08014A46384606F0F8FD00BF00BF41
:1024300000BFC4E720C2002086B0044637A006F0E3
:1024400013FF6AE003A905A8FEF769FF02A904A823
:10245000FEF765FF40F2D24020609DF81000233067
:1024600020639DF81000E0620A200AF003FE4FF49A
:102470007A7190FBF1F0E0630A200AF0FBFD4FF463
:102480007A7190FBF1F02064E06BC0F105006E21E1
:102490004843E16B90FBF1F0A064206CC0F10500B3
:1024A0006E214843216C90FBF1F0606403F038F931
:1024B00008B9012000E00020E064FEF785FE2065F9
:1024C000D4E91610012900D100E00021084320B111
:1024D000FFF7BCFB32214843A06303F0ADFB03F0E0
:1024E00033FB03F0C5FC1548C07814498978CDE961
:1024F000001012484378027811A1201D06F0C4FE96
:102500001248007828B900F02BFA08F0C3FF09F050
:102510000FFA32200BF03AFD00BF93E74765745F76
:1025200053656E736F72735F446174615F5441539E
:102530004B2053746172740D0A000000E10000200A
:10254000257825782578257800000000E000002017
:1025500000BFFEE772B6704762B670471CB504460E
:102560000020019000902148008800042049086064
:102570000D204860402088600020C8604FF48060D3
:102580000861084603F0EAFD1A48406B009002E03B
:102590001848406B0090009800F045000028F7D0E4
:1025A000012003F0A5FD20B1012003F05BFD012017
:1025B0001CBD042003F09CFD20B1042003F052FD5B
:1025C0000320F5E70B4800690D2801D01020EFE744
:1025D00040F2FF5003F046FD064840690190019823
:1025E000C0F3432020700020E2E7000068010020D3
:1025F00000DA00200080014010B509F0F1F8094927
:102600000870094800780978884204D005480078A5
:102610000549087002E01920024908700148007855
:1026200010BD0000330100203401002010B506F079
:10263000C9FC002009F07AFD08F0F4F90F490122E5
:1026400048680FA108F040FA0FE00EA006F00CFE5B
:1026500010A310226E2114200BF03CF8044602E077
:102660000DA006F001FE002CFAD108F013FF00289F
:10267000EBD10DA006F0F8FD10BD0000B000002069
:10268000313A0000D0E8D2AAB8FCD0C2D7D6BFE217
:10269000210D0A00303A0000D7D6BFE2B8FCD0C204
:1026A000CAA7B0DCA3A10000D2D1D3D0D7D6BFE255
:1026B000A3A10D0A0000000070B5044600260948D9
:1026C0000588408845430021084602F0E5FD02F0F8
:1026D000EFFF00BF02E004480480761CAE42FAD34C
:1026E00070BD0000D8D700200008006C10B504466B
:1026F00049488471002C45D1F020474908804FF4A7
:10270000A07048800846808845F21051884210D158
:102710004FF43050404908814FF4285048814FF41D
:102720002C5088814FF4F07008804FF44870488036
:102730001AE03948808841F6631188420DD12C2077
:10274000354908812B2048812A2088814FF4F07078
:1027500008804FF44870488006E02C202E490881FC
:102760002A2048812B2088812B48808845F210310F
:1027700088424CD14FF4A070274908804FF4F07084
:10278000488044E04FF4A07023490880F02048803E
:102790000846808845F21051884210D14FF43050DD
:1027A0001D4908814FF4285048814FF42C508881EE
:1027B0004FF4487008804FF4F07048801AE01648D3
:1027C000808841F6631188420DD12C20124908817E
:1027D0002A2048812B2088814FF4487008804FF4CC
:1027E000F070488006E02C200B4908812A2048819F
:1027F0002B2088810848808845F21031884206D114
:102800004FF4F070044908804FF4A0704880002015
:1028100002F028FC10BD0000D8D7002010B50346F8
:102820000C463848808845F21051884220D13549FD
:10283000488902F037FF181202F02EFF314949890A
:10284000491C88B202F02EFFD8B202F025FF2D49B4
:10285000888902F027FF201202F01EFF294989898A
:10286000491C88B202F01EFFE0B202F015FF42E000
:102870002448808841F66311884228D12148807914
:1028800020B920480088401EC01A83B21D494889DB
:1028900002F008FF181202F0FFFED8B202F0FCFEB0
:1028A000181202F0F9FED8B202F0F6FE1549888936
:1028B00002F0F8FE201202F0EFFEE0B202F0ECFEB1
:1028C000201202F0E9FEE0B202F0E6FE13E00D494C
:1028D000488902F0E7FE181202F0DEFED8B202F0DC
:1028E000DBFE0849888902F0DDFE201202F0D4FEEA
:1028F000E0B202F0D1FE0348008903490880881C39
:10290000028010BDD8D70020FE07006C2DE9F04FE3
:1029100005460E4617469846DDF824A04FF0000BFA
:10292000781B401C1FFA80FB344613E021462846E2
:1029300002F0B2FC02F0BCFE4FF0000906E00748CE
:10294000A0F800A009F101001FFA80F9D945F6DBD3
:10295000601C84B24445E9DDBDE8F08F0008006CDE
:1029600000B59FB00121080203F0C8F901214FF41E
:10297000B47003F0F3F90120ADF8780010208DF861
:102980007B0003208DF87A001EA9FE48FFF7B0FBFC
:102990004CF23370ADF8780018208DF87B000320DE
:1029A0008DF87A001EA9F848FFF7A2FB4FF6807059
:1029B000ADF8780018208DF87B0003208DF87A00A0
:1029C0001EA9F248FFF794FB41F20100ADF8780030
:1029D00018208DF87B0003208DF87A001EA9EC48A2
:1029E000FFF786FB01200890002009900F200A9035
:1029F00000200B900C900D900E90019002900320FF
:102A000003900020049005900690079006200F90F8
:102A1000002010901190102012900020139015901B
:102A20001490169017904FF4805018900020199031
:102A30004FF480401A9000201B9008A81C9001A819
:102A40001D900FA8FFF7F6F901210620FFF7D8F92E
:102A5000322007F0A1FCD32002F024FE02F0CEFACF
:102A6000CC49888002F0CAFACA49888002F0C6FAC6
:102A7000C8498880084680884FF6FF7101EA002027
:102A8000C449888002F0BAFAC24989880843C1491A
:102A900088800846808849F2413188427DD00420F0
:102AA00002F000FE02F0AAFABA49888002F0A6FA03
:102AB000B849888002F0A2FAB64988800846808822
:102AC0004FF6FF7101EA0020B249888002F096FAC1
:102AD000B04989880843AF4988800846808848F211
:102AE0005251884203D147F28970AA498880A94887
:102AF000808847F289718842D0D0D42002F0D2FD7C
:102B000002F07CFAA349888002F078FAA149888013
:102B100002F074FA9F498880084680884FF6FF715A
:102B200001EA00209B49888002F068FA9949898867
:102B30000843984988800846808845F210318842C9
:102B400062D055214FF4704002F0BCFDAA214FF233
:102B5000010002F0B7FD52214FF2020002F0B2FD77
:102B600008214FF2030002F0ADFD01214FF20400F5
:102B700002F0A8FD4FF4454002F094FD02F03EFA49
:102B800084498880084680884FF6FF7101EA00205A
:102B9000804988804CF2015000E035E002F082FD6F
:102BA00002F02CFA7B49898808437A4988800520FD
:102BB00007F0F2FB7748808845F21051884223D015
:102BC000A12002F06FFD02F019FA7249888002F02C
:102BD00015FA70498880084680884FF6FF7101EA2F
:102BE00000206C49888002F009FA6A498988084304
:102BF000684988800846808845F26171884203D11F
:102C000041F66310634988806248818862A006F0BB
:102C10002BFB6048808849F2413188427ED1CF2029
:102C200002F040FD002002F037FDC12002F034FD2B
:102C3000302002F031FDED2002F034FD642002F07E
:102C40002BFD032002F028FD122002F025FD81203B
:102C500002F022FDE82002F025FD852002F01CFD97
:102C6000102002F019FD7A2002F016FDCB2002F0B0
:102C700019FD392002F010FD2C2002F00DFD00207E
:102C800002F00AFD342002F007FD022002F004FDEC
:102C9000F72002F007FD202002F0FEFCEA2002F0FF
:102CA00001FD002002F0F8FC002002F0F5FCC0203D
:102CB00002F0F8FC1B2002F0EFFCC12002F0F2FC55
:102CC000012002F0E9FCC52002F0ECFC302002F00B
:102CD000E3FC302002F0E0FCC72002F0E3FCB72068
:102CE00002F0DAFC362002F0DDFC482002F0D4FCD1
:102CF0003A2002F0D7FC552002F0CEFCB12002F0C1
:102D0000D1FC002002F0C8FC1A2002F0C5FCB6205D
:102D100002F0C8FC0A2002F0BFFC00E0ABE0A220F9
:102D200002F0BAFCF22002F0BDFC002002F0B4FC7C
:102D3000262002F0B7FC012002F0AEFCE02002F0F9
:102D4000B1FC0F2002F0A8FC2A2002F0A5FC2820EC
:102D500002F0A2FC082002F09FFC0E2002F09CFC76
:102D6000082002F099FC542002F096FCA92002F001
:102D700093FC432002F090FC0A2002F08DFC0F200F
:102D800012E00000000C0140001401400018014056
:102D900000200140D8D70020204C43442049443A29
:102DA00025780D0A0000000002F076FC002002F0F9
:102DB00073FC002002F070FC002002F06DFC00208B
:102DC00002F06AFCE12002F06DFC002002F064FCDD
:102DD000152002F061FC172002F05EFC072002F0D3
:102DE0005BFC112002F058FC062002F055FC2B2061
:102DF00002F052FC562002F04FFC3C2002F04CFC4A
:102E0000052002F049FC102002F046FC0F2002F0E1
:102E100043FC3F2002F040FC3F2002F03DFC0F202D
:102E200002F03AFC2B2002F03DFC002002F034FCC2
:102E3000002002F031FC012002F02EFC3F2002F0C5
:102E40002BFC2A2002F02EFC002002F025FC0020A2
:102E500002F022FC002002F01FFCEF2002F01CFC1C
:102E6000112002F01FFC782007F096FA292002F0CA
:102E700019FC02F0A6B8FE48808847F289718842A2
:102E80007ED1112002F00EFC782007F085FA362062
:102E900002F008FC002002F0FFFB3A2002F002FCE6
:102EA000052002F0F9FBB22002F0FCFB0C2002F03E
:102EB000F3FB0C2002F0F0FB002002F0EDFB3320CE
:102EC00002F0EAFB332002F0E7FBB72002F0EAFB56
:102ED000352002F0E1FBBB2002F0E4FB322002F0DF
:102EE000DBFBC02002F0DEFB0C2002F0D5FBC22091
:102EF00002F0D8FB012002F0CFFBC32002F0D2FB8E
:102F0000102002F0C9FBC42002F0CCFB202002F00C
:102F1000C3FBC62002F0C6FB0F2002F0BDFBD02091
:102F200002F0C0FBA42002F0B7FBA12002F0B4FB2A
:102F3000E02002F0B7FBD02002F0AEFB002002F050
:102F4000ABFB022002F0A8FB072002F0A5FB0A2041
:102F500002F0A2FB282002F09FFB322002F09CFB33
:102F6000442002F099FB422002F096FB062002F07A
:102F700093FB0E2002F090FB122002F08DFB00E08C
:102F800054E0142002F088FB172002F085FBE120BA
:102F900002F088FBD02002F07FFB002002F07CFBD7
:102FA000022002F079FB072002F076FB0A2002F0F3
:102FB00073FB282002F070FB312002F06DFB5420DF
:102FC00002F06AFB472002F067FB0E2002F064FB70
:102FD0001C2002F061FB172002F05EFB1B2002F0B8
:102FE0005BFB1E2002F058FB2A2002F05BFB002056
:102FF00002F052FB002002F04FFB002002F04CFBDD
:10300000EF2002F049FB2B2002F04CFB002002F0E5
:1030100043FB002002F040FB012002F03DFB3F207B
:1030200002F03AFB292002F03DFB22E7904880881D
:1030300045F21031884240F07C87ED2002F032FBEF
:10304000012002F029FBFE2002F026FBEE2002F018
:1030500029FBDE2002F020FB212002F01DFBF120E5
:1030600002F020FB012002F017FBDF2002F01AFB28
:10307000102002F011FBC42002F014FB8F2002F09C
:103080000BFBC62002F00EFB002002F005FBE22045
:1030900002F002FBE22002F0FFFAE22002F0FCFA6A
:1030A000BF2002F0FFFAAA2002F0F6FAB02002F0E8
:1030B000F9FA0D2002F0F0FA002002F0EDFA0D20EE
:1030C00002F0EAFA002002F0E7FA112002F0E4FA36
:1030D000002002F0E1FA192002F0DEFA002002F0EE
:1030E000DBFA212002F0D8FA002002F0D5FA2D20D8
:1030F00002F0D2FA002002F0CFFA3D2002F0CCFA22
:10310000002002F0C9FA5D2002F0C6FA002002F0A9
:10311000C3FA5D2002F0C0FA002002F0BDFAB1202F
:1031200002F0C0FA802002F0B7FA002002F0B4FAF0
:103130008B2002F0B1FA002002F0AEFA962002F0E5
:10314000ABFA002002F0A8FAB22002F0ABFA00209D
:1031500002F0A2FA002002F09FFA022002F09CFA8C
:10316000002002F099FA032002F096FA002002F003
:1031700093FAB32002F096FA002002F08DFA0020B4
:1031800002F08AFA002002F087FA002002F084FAA6
:10319000002002F081FA002002F07EFA002002F006
:1031A0007BFA002002F078FA002002F075FA002085
:1031B00002F072FA002002F06FFA002002F06CFABE
:1031C000002002F069FA002002F066FA002002F006
:1031D00063FA002002F060FA002002F05DFA00209D
:1031E00002F05AFA002002F057FA002002F054FAD6
:1031F000002002F051FA002002F04EFA002002F006
:103200004BFA002002F048FAB42002F04BFA8B206F
:1032100002F042FA002002F03FFA962002F03CFA57
:10322000002002F039FAA12002F036FA002002F064
:1032300033FAB52002F036FA022002F02DFA00200F
:1032400002F02AFA032002F027FA002002F024FA02
:10325000042002F021FA002002F01EFAB62002F04B
:1032600021FA002002F018FA002002F015FA01E01D
:10327000D8D70020B72002F015FA002002F00CFA8F
:10328000002002F009FA3F2002F006FA002002F0C6
:1032900003FA5E2002F000FA002002F0FDF964203B
:1032A00002F0FAF9002002F0F7F98C2002F0F4F9AC
:1032B000002002F0F1F9AC2002F0EEF9002002F05B
:1032C000EBF9DC2002F0E8F9002002F0E5F97020CB
:1032D00002F0E2F9002002F0DFF9902002F0DCF9C0
:1032E000002002F0D9F9EB2002F0D6F9002002F01C
:1032F000D3F9DC2002F0D0F9002002F0CDF9B8209B
:1033000002F0D0F9002002F0C7F9002002F0C4F961
:10331000002002F0C1F9002002F0BEF9002002F006
:10332000BBF9002002F0B8F9002002F0B5F9002046
:1033300002F0B2F9BA2002F0B5F9242002F0ACF99B
:10334000002002F0A9F9002002F0A6F9002002F006
:10335000A3F9C12002F0A6F9202002F09DF9002077
:1033600002F09AF9542002F097F9002002F094F943
:10337000FF2002F091F9002002F08EF9C22002F045
:1033800091F90A2002F088F9002002F085F9042062
:1033900002F082F9002002F07FF9C32002F082F9E6
:1033A0003C2002F079F9002002F076F93A2002F090
:1033B00073F9002002F070F9392002F06DF9002055
:1033C00002F06AF9372002F067F9002002F064F990
:1033D0003C2002F061F9002002F05EF9362002F094
:1033E0005BF9002002F058F9322002F055F9002074
:1033F00002F052F92F2002F04FF9002002F04CF9B0
:103400002C2002F049F9002002F046F9292002F0B0
:1034100043F9002002F040F9262002F03DF9002097
:1034200002F03AF9242002F037F9002002F034F9D2
:10343000242002F031F9002002F02EF9232002F0BE
:103440002BF9002002F028F93C2002F025F9002099
:1034500002F022F9362002F01FF9002002F01CF9D8
:10346000322002F019F9002002F016F92F2002F0A4
:1034700013F9002002F010F92C2002F00DF90020C1
:1034800002F00AF9292002F007F9002002F004F9FD
:10349000262002F001F9002002F0FEF8242002F0BC
:1034A000FBF8002002F0F8F8242002F0F5F80020E4
:1034B00002F0F2F8232002F0EFF8002002F0ECF81E
:1034C000C42002F0EFF8622002F0E6F8002002F0DB
:1034D000E3F8052002F0E0F8002002F0DDF8842097
:1034E00002F0DAF8002002F0D7F8F02002F0D4F869
:1034F000002002F0D1F8182002F0CEF8002002F0EF
:10350000CBF8A42002F0C8F8002002F0C5F818207B
:1035100002F0C2F8002002F0BFF8502002F0BCF820
:10352000002002F0B9F80C2002F0B6F8002002F0FA
:10353000B3F8172002F0B0F8002002F0ADF89520A3
:1035400002F0AAF8002002F0A7F8F32002F0A4F895
:10355000002002F0A1F8E62002F09EF8002002F020
:103560009BF8C52002F09EF8322002F095F800206A
:1035700002F092F8442002F08FF8002002F08CF85C
:10358000652002F089F8002002F086F8762002F02B
:1035900083F8002002F080F8882002F07DF80020F7
:1035A00002F07AF8C62002F07DF8202002F074F8CC
:1035B000002002F071F8172002F06EF8002002F0EF
:1035C0006BF8012002F068F8002002F065F8C720CF
:1035D00002F068F8002002F05FF8002002F05CF8CA
:1035E000002002F059F8002002F056F8C82002F03E
:1035F00059F8002002F050F8002002F04DF80020A9
:1036000002F04AF8002002F047F8C92002F04AF818
:10361000002002F041F8002002F03EF8002002F005
:103620003BF8002002F038F8002002F035F80020C6
:1036300002F032F8002002F02FF8002002F02CF8FF
:10364000002002F029F8002002F026F8002002F005
:1036500023F8002002F020F8002002F01DF80020DE
:1036600002F01AF8002002F017F8002002F014F817
:10367000E02002F017F8162002F00EF8002002F009
:103680000BF81C2002F008F8002002F005F82120B9
:1036900002F002F8002001F0FFFF362001F0FCFFED
:1036A000002001F0F9FF462001F0F6FF002001F0B4
:1036B000F3FF522001F0F0FF002001F0EDFF642045
:1036C00001F0EAFF002001F0E7FF7A2001F0E4FFBB
:1036D000002001F0E1FF8B2001F0DEFF002001F06F
:1036E000DBFF992001F0D8FF002001F0D5FFA820D2
:1036F00001F0D2FF002001F0CFFFB92001F0CCFF94
:10370000002001F0C9FFC42001F0C6FF002001F035
:10371000C3FFCA2001F0C0FF002001F0BDFFD2208E
:1037200001F0BAFF002001F0B7FFD92001F0B4FF8B
:10373000002001F0B1FFE02001F0AEFF002001F019
:10374000ABFFF32001F0A8FF002001F0A5FFE1206E
:1037500001F0A8FF162001F09FFF002001F09CFF60
:103760001C2001F099FF002001F096FF222001F0BB
:1037700093FF002001F090FF362001F08DFF002024
:1037800001F08AFF452001F087FF002001F084FF4F
:10379000522001F081FF002001F07EFF642001F043
:1037A0007BFF002001F078FF7A2001F075FF0020F8
:1037B00001F072FF8B2001F06FFF002001F06CFF21
:1037C000992001F069FF002001F066FFA82001F0B8
:1037D00063FF002001F060FFB92001F05DFF0020D1
:1037E00001F05AFFC42001F057FF002001F054FF00
:1037F000CA2001F051FF002001F04EFFD22001F05D
:103800004BFF002001F048FFD82001F045FF0020C9
:1038100001F042FFE02001F03FFF002001F03CFFFB
:10382000F32001F039FF002001F036FFE22001F023
:1038300039FF052001F030FF002001F02DFF0B20A3
:1038400001F02AFF002001F027FF1B2001F024FFD8
:10385000002001F021FF342001F01EFF002001F0C4
:103860001BFF442001F018FF002001F015FF4F203E
:1038700001F012FF002001F00FFF612001F00CFFAA
:10388000002001F009FF792001F006FF002001F07F
:1038900003FF882001F000FF002001F0FDFE9720CB
:1038A00001F0FAFE002001F0F7FEA62001F0F4FE80
:1038B000002001F0F1FEB72001F0EEFE002001F043
:1038C000EBFEC22001F0E8FE002001F0E5FEC7207B
:1038D00001F0E2FE002001F0DFFED12001F0DCFE6D
:1038E000002001F0D9FED62001F0D6FE002001F024
:1038F000D3FEDD2001F0D0FE002001F0CDFEF3204C
:1039000001F0CAFE002001F0C7FEE32001F0CAFE6C
:10391000052001F0C1FE002001F0BEFE0A2001F0EA
:10392000BBFE002001F0B8FE1C2001F0B5FE002017
:1039300001F0B2FE332001F0AFFE002001F0ACFE3A
:10394000442001F0A9FE002001F0A6FE502001F065
:10395000A3FE002001F0A0FE622001F09DFE0020E9
:1039600001F09AFE782001F097FE002001F094FE0D
:10397000882001F091FE002001F08EFE972001F0DA
:103980008BFE002001F088FEA62001F085FE0020BD
:1039900001F082FEB72001F07FFE002001F07CFEE6
:1039A000C22001F079FE002001F076FEC72001F070
:1039B00073FE002001F070FED12001F06DFE0020AA
:1039C00001F06AFED52001F067FE002001F064FEE0
:1039D000DD2001F061FE002001F05EFEF32001F029
:1039E0005BFE002001F058FEE42001F05BFE0120A8
:1039F00001F052FE002001F04FFE012001F04CFECC
:103A0000002001F049FE022001F046FE002001F0F6
:103A100043FE2A2001F040FE002001F03DFE3C2044
:103A200001F03AFE002001F037FE4B2001F034FE99
:103A3000002001F031FE5D2001F02EFE002001F09B
:103A40002BFE742001F028FE002001F025FE8420CA
:103A500001F022FE002001F01FFE932001F01CFE69
:103A6000002001F019FEA22001F016FE002001F056
:103A700013FEB32001F010FE002001F00DFEBE2069
:103A800001F00AFE002001F007FEC42001F004FE50
:103A9000002001F001FECD2001F0FEFD002001F02C
:103AA000FBFDD32001F0F8FD002001F0F5FDDD2045
:103AB00001F0F2FD002001F0EFFDF32001F0ECFD3C
:103AC000002001F0E9FDE52001F0ECFD002001F00F
:103AD000E3FD002001F0E0FD002001F0DDFD00200D
:103AE00001F0DAFD022001F0D7FD002001F0D4FD45
:103AF000292001F0D1FD002001F0CEFD3C2001F095
:103B0000CBFD002001F0C8FD4B2001F0C5FD0020D9
:103B100001F0C2FD5D2001F0BFFD002001F0BCFD01
:103B2000742001F0B9FD002001F0B6FD842001F001
:103B3000B3FD002001F0B0FD932001F0ADFD0020A9
:103B400001F0AAFDA22001F0A7FD002001F0A4FDD4
:103B5000B32001F0A1FD002001F09EFDBE2001F088
:103B60009BFD002001F098FDC42001F095FD002090
:103B700001F092FDCD2001F08FFD002001F08CFDC1
:103B8000D32001F089FD002001F086FDDC2001F04A
:103B900083FD002001F080FDF32001F07DFD002079
:103BA00001F07AFDE62001F07DFD112001F074FDA9
:103BB000002001F071FD342001F06EFD002001F0C5
:103BC0006BFD562001F068FD002001F065FD7620B8
:103BD00001F062FD002001F05FFD772001F05CFD47
:103BE000002001F059FD662001F056FD002001F093
:103BF00053FD882001F050FD002001F04DFD99207B
:103C000001F04AFD002001F047FDBB2001F044FD1A
:103C1000002001F041FD992001F03EFD002001F05F
:103C20003BFD662001F038FD002001F035FD5520F8
:103C300001F032FD002001F02FFD552001F02CFD98
:103C4000002001F029FD452001F026FD002001F0B3
:103C500023FD432001F020FD002001F01DFD442044
:103C600001F01AFD002001F017FDE72001F01AFD18
:103C7000322001F011FD002001F00EFD552001F071
:103C80000BFD002001F008FD762001F005FD00206D
:103C900001F002FD662001F0FFFC002001F0FCFCB9
:103CA000672001F0F9FC002001F0F6FC672001F02C
:103CB000F3FC002001F0F0FC872001F0EDFC002077
:103CC00001F0EAFC992001F0E7FC002001F0E4FC9F
:103CD000BB2001F0E1FC002001F0DEFC992001F0A6
:103CE000DBFC002001F0D8FC772001F0D5FC00209F
:103CF00001F0D2FC442001F0CFFC002001F0CCFC0C
:103D0000562001F0C9FC002001F0C6FC232001F080
:103D1000C3FC002001F0C0FC332001F0BDFC0020FA
:103D200001F0BAFC452001F0B7FC002001F0B4FC22
:103D3000E82001F0B7FC002001F0AEFC002001F00B
:103D4000ABFC992001F0A8FC002001F0A5FC872025
:103D500001F0A2FC002001F09FFC882001F09CFCF7
:103D6000002001F099FC772001F096FC002001F082
:103D700093FC662001F090FC002001F08DFC88206F
:103D800001F08AFC002001F087FCAA2001F084FCED
:103D9000002001F081FCBB2001F07EFC002001F03E
:103DA0007BFC992001F078FC002001F075FC662076
:103DB00001F072FC002001F06FFC552001F06CFC5A
:103DC000002001F069FC552001F066FC002001F0A4
:103DD00063FC442001F060FC002001F05DFC442005
:103DE00001F05AFC002001F057FC552001F054FC72
:103DF000002001F051FCE92001F054FCAA2001F060
:103E00004BFC002001F048FC002001F045FC0020A4
:103E100001F042FC002001F045FCAA2001F03CFC2E
:103E2000CF2001F03FFC002001F036FC002001F023
:103E300033FC002001F030FC002001F02DFC0020BC
:103E400001F02AFC002001F027FC002001F024FCF6
:103E5000002001F021FC002001F01EFC002001F0F8
:103E60001BFC002001F018FC002001F015FC0020D4
:103E700001F012FC002001F00FFC002001F00CFC0E
:103E8000002001F009FC002001F006FCF02001F008
:103E900009FC002001F000FC502001F0FDFB002097
:103EA00001F0FAFB002001F0F7FB002001F0F4FB29
:103EB000F32001F0F7FB002001F0EEFBF92001F008
:103EC000F1FB062001F0E8FB102001F0E5FB2920C2
:103ED00001F0E2FB002001F0DFFB3A2001F0E2FB01
:103EE000552001F0D9FB112001F0DCFB642006F025
:103EF00053FA292001F0D6FB352001F0D3FB002036
:103F000001F0CAFB512001F0CDFBFF2001F0C4FB02
:103F1000532001F0C7FB2C2001F0BEFB552001F01F
:103F2000C1FB822001F0B8FB2C2001F0BBFB01F0AB
:103F300048B8FE48808845F2105188427ED155210C
:103F40004FF4704001F0BEFBAA214FF2010001F0D6
:103F5000B9FB52214FF2020001F0B4FB08214FF2ED
:103F6000030001F0AFFB01214FF2040001F0AAFBB6
:103F70000D214FF4304001F0A5FB0D214BF2010063
:103F800001F0A0FB0D214BF2020001F09BFB34215C
:103F90004FF4364001F096FB34214BF2016001F002
:103FA00091FB34214BF2026001F08CFB0D214FF4A8
:103FB000314001F087FB0D214BF2011001F082FB33
:103FC0000D214BF2021001F07DFB34214FF43740FC
:103FD00001F078FB34214BF2017001F073FB3421C6
:103FE0004BF2027001F06EFB00214FF4324001F001
:103FF00069FB00214BF2012001F064FB00214BF230
:10400000022001F05FFB24214FF4384001F05AFBFD
:1040100024214BF6010001F055FB24214BF6020050
:1040200001F050FB01214FF43F4001F04BFB0F2109
:104030004FF4334001F046FB0F2100E0FEE34BF26A
:10404000013001F03FFB0F214BF2023001F03AFB4F
:1040500034214FF4394001F035FB34214BF6011087
:1040600001F030FB34214BF6021001F02BFB08214C
:104070004FF4354001F026FB08214BF2015001F0CE
:1040800021FB08214BF2025001F01CFB03214FF4ED
:10409000424001F017FB24214FF43A4001F012FB9B
:1040A00024214BF6012001F00DFB24214BF60220C8
:1040B00001F008FB00214FF43C4001F003FB7821A4
:1040C0004BF6014001F0FEFA00214BF6024001F0F0
:1040D000F9FA00214FF43D4001F0F4FA78214BF653
:1040E000015001F0EFFA00214BF6025001F0EAFA1C
:1040F00000214FF43E4001F0E5FA64214BF60160E7
:1041000001F0E0FA00214FF4514001F0DBFA3321D5
:104110004DF2011001F0D6FA00214DF2021001F02B
:10412000D1FA34214DF2031001F0CCFA00214DF206
:10413000041001F0C7FA3A214DF2051001F0C2FA5D
:1041400000214DF2061001F0BDFA4A214DF2071090
:1041500001F0B8FA00214DF2081001F0B3FA5C2129
:104160004DF2091001F0AEFA00214DF20A1001F0F3
:10417000A9FA81214DF20B1001F0A4FA00214DF2B1
:104180000C1001F09FFAA6214DF20D1001F09AFAE1
:1041900000214DF20E1001F095FAE5214DF20F10BD
:1041A00001F090FA01214DF2101001F08BFA132169
:1041B0004DF2111001F086FA01214DF2121001F0BA
:1041C00081FA54214DF2131001F07CFA01214DF2D5
:1041D000141001F077FA82214DF2151001F072FAF5
:1041E00001214DF2161001F06DFACA214DF217109F
:1041F00001F068FA02214DF2181001F063FA002173
:104200004DF2191001F05EFA02214DF21A1001F080
:1042100059FA01214DF21B1001F054FA02214DF21E
:104220001C1001F04FFA34214DF21D1001F04AFA32
:1042300002214DF21E1001F045FA67214DF21F10C8
:1042400001F040FA02214DF2201001F03BFA8421E6
:104250004DF2211001F036FA02214DF2221001F048
:1042600031FAA4214DF2231001F02CFA02214DF273
:10427000241001F027FAB7214DF2251001F022FA9F
:1042800002214DF2261001F01DFACF214DF2271028
:1042900001F018FA02214DF2281001F013FADE2184
:1042A0004DF2291001F00EFA02214DF22A1001F010
:1042B00009FAF2214DF22B1001F004FA02214DF21D
:1042C0002C1001F0FFF9FE214DF22D1001F0FAF94A
:1042D00003214DF22E1001F0F5F910214DF22F10AF
:1042E00001F0F0F903214DF2301001F0EBF9332128
:1042F0004DF2311001F0E6F903214DF2321001F0D8
:10430000E1F96D214DF2331001F0DCF900214FF499
:10431000524001F0D7F933214DF2012001F0D2F9DA
:1043200000214DF2022001F0CDF901E0D8D70020A4
:1043300034214DF2032001F0C5F900214DF2042093
:1043400001F0C0F93A214DF2052001F0BBF900213E
:104350004DF2062001F0B6F94A214DF2072001F096
:10436000B1F900214DF2082001F0ACF95C214DF2C9
:10437000092001F0A7F900214DF20A2001F0A2F96D
:1043800081214DF20B2001F09DF900214DF20C200E
:1043900001F098F9A6214DF20D2001F093F90021CA
:1043A0004DF20E2001F08EF9E5214DF20F2001F0C3
:1043B00089F901214DF2102001F084F913214DF209
:1043C000112001F07FF901214DF2122001F07AF95C
:1043D00054214DF2132001F075F901214DF2142002
:1043E00001F070F982214DF2152001F06BF90121E5
:1043F0004DF2162001F066F9CA214DF2172001F0A6
:1044000061F902214DF2182001F05CF900214DF212
:10441000192001F057F902214DF21A2001F052F94A
:1044200001214DF21B2001F04DF902214DF21C201B
:1044300001F048F934214DF21D2001F043F9022129
:104440004DF21E2001F03EF967214DF21F2001F0D0
:1044500039F902214DF2202001F034F984214DF286
:10446000212001F02FF902214DF2222001F02AF93A
:10447000A4214DF2232001F025F902214DF2242040
:1044800001F020F9B7214DF2252001F01BF902219E
:104490004DF2262001F016F9CF214DF2272001F030
:1044A00011F902214DF2282001F00CF9DE214DF224
:1044B000292001F007F902214DF22A2001F002F92A
:1044C000F2214DF22B2001F0FDF802214DF22C20BB
:1044D00001F0F8F8FE214DF22D2001F0F3F8032150
:1044E0004DF22E2001F0EEF810214DF22F2001F0B8
:1044F000E9F803214DF2302001F0E4F833214DF2C8
:10450000312001F0DFF803214DF2322001F0DAF81A
:104510006D214DF2332001F0D5F800214FF45340C6
:1045200001F0D0F833214DF2013001F0CBF8002139
:104530004DF2023001F0C6F834214DF2033001F0A3
:10454000C1F800214DF2043001F0BCF83A214DF2DF
:10455000053001F0B7F800214DF2063001F0B2F855
:104560004A214DF2073001F0ADF800214DF208303C
:1045700001F0A8F85C214DF2093001F0A3F8002108
:104580004DF20A3001F09EF881214DF20B3001F01E
:1045900099F800214DF20C3001F094F8A6214DF26B
:1045A0000D3001F08FF800214DF20E3001F08AF845
:1045B000E5214DF20F3001F085F801214DF2103068
:1045C00001F080F813214DF2113001F07BF8012148
:1045D0004DF2123001F076F854214DF2133001F013
:1045E00071F801214DF2143001F06CF882214DF286
:1045F000153001F067F801214DF2163001F062F834
:10460000CA214DF2173001F05DF802214DF2183049
:1046100001F058F800214DF2193001F053F8022151
:104620004DF21A3001F04EF801214DF21B3001F02D
:1046300049F802214DF21C3001F044F834214DF2CA
:104640001D3001F03FF802214DF21E3001F03AF822
:1046500067214DF21F3001F035F802214DF2203074
:1046600001F030F884214DF2213001F02BF80221C5
:104670004DF2223001F026F8A4214DF2233001F052
:1046800021F802214DF2243001F01CF8B7214DF23F
:10469000253001F017F802214DF2263001F012F812
:1046A000CF214DF2273001F00DF802214DF22830D4
:1046B00001F008F8DE214DF2293001F003F8022163
:1046C0004DF22A3000F0FEFFF2214DF22B3000F0C7
:1046D000F9FF02214DF22C3000F0F4FFFE214DF2E3
:1046E0002D3000F0EFFF03214DF22E3000F0EAFFF5
:1046F00010214DF22F3000F0E5FF03214DF2303054
:1047000000F0E0FF33214DF2313000F0DBFF0321F8
:104710004DF2323000F0D6FF6D214DF2333000F013
:10472000D1FF00214FF4544000F0CCFF33214DF273
:10473000014000F0C7FF00214DF2024000F0C2FF2F
:1047400034214DF2034000F0BDFF00214DF2044042
:1047500000F0B8FF3A214DF2054000F0B3FF002110
:104760004DF2064000F0AEFF4A214DF2074000F046
:10477000A9FF00214DF2084000F0A4FF5C214DF29A
:10478000094000F09FFF00214DF20A4000F09AFF1F
:1047900081214DF20B4000F095FF00214DF20C40BD
:1047A00000F090FFA6214DF20D4000F08BFF00219C
:1047B0004DF20E4000F086FFE5214DF20F4000F073
:1047C00081FF01214DF2104000F07CFF13214DF2DA
:1047D000114000F077FF01214DF2124000F072FF0E
:1047E00054214DF2134000F06DFF01214DF21440B1
:1047F00000F068FF82214DF2154000F063FF0121B7
:104800004DF2164000F05EFFCA214DF2174000F055
:1048100059FF02214DF2184000F054FF00214DF2E3
:10482000194000F04FFF02214DF21A4000F04AFFFC
:1048300001214DF21B4000F045FF00E003E302219F
:104840004DF21C4000F03EFF34214DF21D4000F0BF
:1048500039FF02214DF21E4000F034FF67214DF276
:104860001F4000F02FFF02214DF2204000F02AFFF0
:1048700084214DF2214000F025FF02214DF222401B
:1048800000F020FFA4214DF2234000F01BFF022185
:104890004DF2244000F016FFB7214DF2254000F004
:1048A00011FF02214DF2264000F00CFFCF214DF206
:1048B000274000F007FF02214DF2284000F002FFE0
:1048C000DE214DF2294000F0FDFE02214DF22A408A
:1048D00000F0F8FEF2214DF22B4000F0F3FE022131
:1048E0004DF22C4000F0EEFEFE214DF22D4000F086
:1048F000E9FE03214DF22E4000F0E4FE10214DF2BE
:104900002F4000F0DFFE03214DF2304000F0DAFED0
:1049100033214DF2314000F0D5FE03214DF23240FB
:1049200000F0D0FE6D214DF2334000F0CBFE0021AF
:104930004FF4554000F0C6FE33214DF2015000F017
:10494000C1FE00214DF2025000F0BCFE34214DF2B8
:10495000035000F0B7FE00214DF2045000F0B2FE0B
:104960003A214DF2055000F0ADFE00214DF2065007
:1049700000F0A8FE4A214DF2075000F0A3FE0021EE
:104980004DF2085000F09EFE5C214DF2095000F0FF
:1049900099FE00214DF20A5000F094FE81214DF263
:1049A0000B5000F08FFE00214DF20C5000F08AFEFB
:1049B000A6214DF20D5000F085FE00214DF20E5063
:1049C00000F080FEE5214DF20F5000F07BFE01214A
:1049D0004DF2105000F076FE13214DF2115000F010
:1049E00071FE01214DF2125000F06CFE54214DF287
:1049F000135000F067FE01214DF2145000F062FEEA
:104A000082214DF2155000F05DFE01214DF216504D
:104A100000F058FECA214DF2175000F053FE02215B
:104A20004DF2185000F04EFE00214DF2195000F0EA
:104A300049FE02214DF21A5000F044FE01214DF2D0
:104A40001B5000F03FFE02214DF21C5000F03AFED8
:104A500034214DF21D5000F035FE02214DF21E5062
:104A600000F030FE67214DF21F5000F02BFE0221B6
:104A70004DF2205000F026FE84214DF2215000F02E
:104A800021FE02214DF2225000F01CFEA4214DF225
:104A9000235000F017FE02214DF2245000F012FEC8
:104AA000B7214DF2255000F00DFE02214DF22650A7
:104AB00000F008FECF214DF2275000F003FE022146
:104AC0004DF2285000F0FEFDDE214DF2295000F09D
:104AD000F9FD02214DF22A5000F0F4FDF2214DF2D1
:104AE0002B5000F0EFFD02214DF22C5000F0EAFDBA
:104AF000FE214DF22D5000F0E5FD03214DF22E5028
:104B000000F0E0FD10214DF22F5000F0DBFD0321FD
:104B10004DF2305000F0D6FD33214DF2315000F00F
:104B2000D1FD03214DF2325000F0CCFD6D214DF24C
:104B3000335000F0C7FD00214FF4564000F0C2FD95
:104B400033214DF2016000F0BDFD00214DF2026005
:104B500000F0B8FD34214DF2036000F0B3FD0021F8
:104B60004DF2046000F0AEFD3A214DF2056000F018
:104B7000A9FD00214DF2066000F0A4FD4A214DF28E
:104B8000076000F09FFD00214DF2086000F09AFDE3
:104B90005C214DF2096000F095FD00214DF20A60A4
:104BA00000F090FD81214DF20B6000F08BFD0021A3
:104BB0004DF20C6000F086FDA6214DF20D6000F074
:104BC00081FD00214DF20E6000F07CFDE5214DF2EB
:104BD0000F6000F077FD01214DF2106000F072FDD2
:104BE00013214DF2116000F06DFD01214DF21260B4
:104BF00000F068FD54214DF2136000F063FD0121C7
:104C00004DF2146000F05EFD82214DF2156000F05F
:104C100059FD01214DF2166000F054FDCA214DF2FC
:104C2000176000F04FFD02214DF2186000F04AFDC0
:104C300000214DF2196000F045FD02214DF21A608D
:104C400000F040FD01214DF21B6000F03BFD022110
:104C50004DF21C6000F036FD34214DF21D6000F075
:104C600031FD02214DF21E6000F02CFD67214DF256
:104C70001F6000F027FD02214DF2206000F022FDB0
:104C800084214DF2216000F01DFD02214DF22260D1
:104C900000F018FDA4214DF2236000F013FD022165
:104CA0004DF2246000F00EFDB7214DF2256000F0BA
:104CB00009FD02214DF2266000F004FDCF214DF2E6
:104CC000276000F0FFFC02214DF2286000F0FAFCA2
:104CD000DE214DF2296000F0F5FC02214DF22A6040
:104CE00000F0F0FCF2214DF22B6000F0EBFC022111
:104CF0004DF22C6000F0E6FCFE214DF22D6000F03C
:104D0000E1FC03214DF22E6000F0DCFC10214DF29D
:104D10002F6000F0D7FC03214DF2306000F0D2FC90
:104D200033214DF2316000F0CDFC03214DF23260B1
:104D300000F0C8FC6D214DF2336000F0C3FC55213A
:104D40004FF4704000F0BEFCAA214FF2010000F0C9
:104D5000B9FC52214FF2020000F0B4FC08214FF2DE
:104D6000030000F0AFFC00214FF2040000F0AAFCA9
:104D7000CC214FF4314000F0A5FC00214BF2011092
:104D800000F0A0FC05214FF4364000F09BFC7021A0
:104D90004FF4374000F096FC70214BF2017000F0A8
:104DA00091FC01214FF4384000F08CFC03214BF6BC
:104DB000010000F087FC03214BF6020000F082FCAA
:104DC00003214BF6030000F07DFC02214FF43C4030
:104DD00000F078FC00214BF6014000F073FC00214C
:104DE0004BF6024000F06EFCD0214FF4494000F039
:104DF00069FC02214CF6011000F064FC50214CF6D5
:104E0000021000F05FFC50214CF6031000F05AFC39
:104E100050214CF6041000F055FC00214FF4545082
:104E200000F050FC55214FF4685000F04BFC4FF45B
:104E3000885000F037FC782005F0CEFA4FF424506B
:104E400000F030FCBDE06548808841F6631188427F
:104E5000F8D1E22000F026FC1D2000F01DFC02200D
:104E600000F01AFC042000F017FC642005F0B4FAEE
:104E7000E02000F017FC012000F00EFC0A2005F0F5
:104E80008BFAE02000F00EFC032000F005FC0C2063
:104E900005F082FA012000F005FC0A2005F07CFAFA
:104EA000E62000F0FFFB2F2000F0F6FBFF2000F0D3
:104EB000F3FBFF2000F0F0FBB02000F0F3FB20201C
:104EC00000F0EAFB002000F0E7FB032000F0E4FB29
:104ED00040F21F3000F0E0FB012000F0DDFB40F26B
:104EE000DF1000F0D9FB002000F0D6FBB42000F06A
:104EF000D9FB042000F0D0FB40F21F4000F0CCFBB7
:104F0000002000F0C9FB2E2000F0C6FB002000F0BE
:104F1000C3FB002000F0C0FB002000F0BDFB002020
:104F200000F0BAFBB62000F0BDFB022000F0B4FB9D
:104F30004FF4037000F0B0FB002000F0ADFB172031
:104F400000F0AAFB152000F0A7FB002000F0A4FB56
:104F5000002000F0A1FBF02000F0A4FB032000F0F3
:104F60009BFB292000F09EFBD02000F09BFB002043
:104F700000F092FBBE2000F095FB052000F08CFBBA
:104F8000FE2000F089FB012000F086FB002000F0ED
:104F900083FB002000F080FB002000F07DFBB820A8
:104FA00000F080FB032000F077FB012000F074FB91
:104FB000BA2000F077FB012000F06EFB642000F0C7
:104FC00027F80020FDF792FB0120054908604FF605
:104FD000FF70FDF771FB1FB000BD0000D8D70020A7
:104FE0008081214210B50246012000E050430B1E93
:104FF000A1F10104E1B2F9D110BD000008B50348E8
:1050000000880090BDF8000008BD00000008006C9A
:105010002DE9F0470446BE2000F044FB052000F0D7
:105020003BFB2046FBF7A7FA07464FF066320C4BD6
:10503000FBF72AFA0546FBF7BFFA1FFA80F9484644
:1050400000F02AFB012000F027FBFF2000F024FBEA
:10505000002000F021FB002000F01EFBBDE8F087DF
:105060006666044070B504460023002689488079AE
:10507000012805D18748808841F66311884208D10C
:1050800084488079F0B98348808841F6631188426A
:1050900018D1082C15D2DFE804F00406080A0C0E1B
:1050A000101206240DE007240BE0042409E0052477
:1050B00007E0012405E0002403E0032401E00224CA
:1050C00000BF00BF082C1CD2DFE804F00406090C66
:1050D0000F12151800BF14E043F0800311E043F0F5
:1050E00040030EE043F0C0030BE043F0200308E070
:1050F00043F0600305E043F0A00302E043F0E00367
:1051000000BF00BF6348808845F21051884202D139
:105110004FF4585600E036265E48808849F2413107
:10512000884205D05B48808847F28971884201D166
:1051300043F008031946304600F0C4FA5548808809
:1051400041F6631188421DD003F0200068B1514838
:10515000008850494988884214DA4E4805884088BA
:105160004C490880084645800CE04A480088494977
:105170004988884206DD47480588408845490880B7
:10518000084645804348808845F21051884252D1F4
:105190004049488900F086FA002000F07DFA3D4938
:1051A0004989491C88B200F07DFA002000F074FAA9
:1051B00038494989891C88B200F074FA3549098850
:1051C000491EC1F30F2000F067FA32494989C91C12
:1051D00088B200F067FA2F490978491EC8B200F07A
:1051E0005BFA2C49888900F05DFA002000F054FA3F
:1051F00028498989491C88B200F054FA002000F03F
:105200004BFA24498989891C88B200F04BFA21495C
:105210004988491EC1F30F2000F03EFA1D498989D3
:10522000C91C88B200F03EFA1A498978491EC8B2F2
:1052300000F032FA2DE01749488900F033FA0020D7
:1052400000F02AFA002000F027FA12490988491EC6
:10525000C1F30F2000F020FA0E490978491EC8B2A8
:1052600000F01AFA0B49888900F01CFA002000F0BF
:1052700013FA002000F010FA06494988491EC1F3CC
:105280000F2000F009FA03498978491EC8B200F0DE
:1052900003FA70BDD8D7002000B502460B4645483A
:1052A000808841F66311884247D142488079A8B985
:1052B00040480088401E801A82B23E49488900F06A
:1052C000F1F9002000F0E8F9002000F0E5F91012F3
:1052D00000F0E2F9D0B200F0DFF916E03549488974
:1052E00000F0E0F9101200F0D7F9D0B200F0D4F9D4
:1052F00030490988491EC1F30F2000F0CDF92D492E
:105300000978491EC8B200F0C7F92A49888900F017
:10531000C9F9181200F0C0F9D8B200F0BDF925495A
:105320004988491EC1F30F2000F0B6F92149897858
:10533000491EC8B200F0B0F93AE01E48808845F234
:105340001051884220D11B49488900F0ABF9101256
:1053500000F0A2F917494989491C88B200F0A2F966
:10536000D0B200F099F91349888900F09BF918121E
:1053700000F092F90F498989491C88B200F092F92E
:10538000D8B200F089F913E00A49488900F08AF997
:10539000101200F081F9D0B200F07EF90549888939
:1053A00000F080F9181200F077F9D8B200F074F923
:1053B00000BD0000D8D700202DE9F84F80460E46EA
:1053C00017461C46B3462046E31704EB5373DB1025
:1053D00021464FEAE47C04EB5C7C4FEAEC0CA4EB46
:1053E000CC0CBCF1000F02D04FF0010C01E04FF0EB
:1053F000000C6344224604EBD27C4FEA6C0C03FBA6
:105400000CF3DBB20093A7F12000C7B2002556E0F1
:105410000C2C07D107EB47002B4901EB800010F85B
:10542000059013E0102C05D1284800EB071010F868
:1054300005900BE0182C07D107EBC700244901EBBE
:10544000800010F8059001E0BDE8F88F4FF0000AE9
:105450002FE009F0800030B11E48028831464046F6
:10546000FDF7DCF907E00A9828B91B4802883146A5
:105470004046FDF7D3F94FEA49604FEA1069701CC6
:1054800086B216484088B04200DCDDE7A6EB0B0090
:10549000A0420AD15E4608F101001FFA80F80F48C9
:1054A0000088404500DCCFE706E00AF1010000F08B
:1054B000FF0ABAF1080FCCDB00BF681CC5B2009828
:1054C0008542A5DB00BFBFE7902C0108043101082D
:1054D000F43601085201002054010020D8D70020E2
:1054E0002DE9FF4F81B0074691461E460E9D4FF0B5
:1054F000000A002439E0301B401EC1B20A20FFF729
:1055000071FDB9FBF0F00A21B0FBF1F201FB1208CA
:10551000BAF1000F16D1701EA04213DDB8F1000FD2
:105520000ED10020AB4605EBDB71491001FB047185
:10553000009088B22B4620220299FFF73DFF12E02F
:105540004FF0010A0020AB4605EBDB71491001FB6F
:105550000471009088B208F13001CAB22B4602995A
:10556000FFF72AFF00BF601CC4B2B442C3DB05B022
:10557000BDE8F08F2DE9F84704460D469046994660
:10558000DDE9096704F0FF0A08EB04001FFA80F860
:1055900009EB05001FFA80F916E0444502DB54468A
:1055A000A81985B24D4500DB14E0002000903A7840
:1055B000334629462046FFF7FFFE304606EBD07102
:1055C00004EB61018CB27F1C38787E2802DC3878CD
:1055D0002028E2DA00BFBDE8F8872DE9FF4F82B04E
:1055E000064692461F46DDE90F480020019000253F
:1055F0004DE0781B401EC1B20A20FFF7F3FCBAFB56
:10560000F0F00A21B0FBF1F201FB1209019850BB46
:10561000781EA84227DDB9F1000F22D108F08000E2
:1056200078B108F00100A34604EBDB71491001FBDF
:105630000561009088B2234630220399FFF7BCFE33
:105640000EE008F00100A34604EBDB71491001FBFA
:105650000561009088B2234620220399FFF7ACFE33
:1056600013E00120019008F00100A34604EBDB7178
:10567000491001FB0561009088B209F13001CAB2FE
:1056800023460399FFF798FE00BF681CC5B2BD42D0
:10569000AFDB06B0BDE8F08F01490880704700001D
:1056A0000008006C0149088070470000FE07006C8C
:1056B000024800890249088070470000D8D70020BE
:1056C000FE07006C024A1080921C11807047000097
:1056D000FE07006C08B50121482000F03FFB1020B8
:1056E000ADF8000048208DF8030003208DF802007B
:1056F00069460948FCF7FCFC10210748FCF7D7FD78
:105700002020ADF8000069460448FCF7F1FC202198
:105710000248FCF7CCFD08BD000C01400018014018
:1057200010B54FF400510248FCF7B6FD10BD000063
:105730000008014008B50121042000F00FFB4820BB
:105740008DF803004FF40050ADF8000003208DF8F1
:10575000020069460148FCF7CBFC08BD0008014087
:1057600070B505460C46284600F0B0F8064626EA15
:105770000401284600F0D6F870BD00002DE9FE4F68
:105780000646884691469A46DDF830B0FE200290E3
:105790000020019000900C2E06D00E2E09D1122070
:1057A00001901020009004E07720019030200090BC
:1057B00000BF00BF019840F08001022000F0B2F865
:1057C00080210420FFF7CCFF0021012000F0AAF87F
:1057D00080210A2000F098F8002505E018F805104F
:1057E000092000F09FF86D1C4D45F7D3314601208C
:1057F00000F098F80C2E03D180210D2000F084F8E1
:105800002A4D00BF042000F061F804466D1E35B13A
:1058100004F0010018B9009820400028F2D080213F
:105820000D20FFF79DFF002D35D0062000F04EF82B
:1058300000F01B0068BB002002900198204000F09F
:10584000010008B1FF2002900C2E24D10A2000F0A4
:105850003DF804460C2000F039F800F007072FB19E
:10586000601E07EBC000ABF8000002E0E000ABF800
:10587000000004B90124122C00DD1224002505E0EB
:10588000092000F023F80AF805006D1CA542F7D3A3
:1058900001E0FE20029080210C2000F035F800216C
:1058A000012000F03FF80298BDE8FE8FE09304006D
:1058B00010B5012211020448FCF7FBFC0122102163
:1058C0000148FCF7F6FC10BD0008014070B5044625
:1058D0007E2000EA440040F0800500224FF48071F1
:1058E0000848FCF7E6FC284602F04AF8002002F0DF
:1058F00047F80646012211020248FCF7DAFC30465E
:1059000070BD00000008014070B505460C462846F1
:10591000FFF7DCFF064646EA0401284600F002F8DD
:1059200070BD000070B504460D467E2000EA4406B6
:1059300000224FF480710748FCF7BBFC304602F0B0
:105940001FF8284602F01CF8012211020148FCF75A
:10595000B0FC70BD00080140F8B504460D4617467E
:105960001E46304600F086F88DF800708DF8014034
:105970008DF8025001208DF80300684600F042F8CF
:10598000F8BD00BFFEE7000008B50121042000F0CB
:10599000E5F910208DF80300B020ADF800000320D9
:1059A0008DF8020069460B48FCF7A2FB48208DF8F1
:1059B00003004020ADF8000003208DF80200694686
:1059C0000448FCF795FB012000F010F8002000F0DF
:1059D00003F808BD0008014010B504462246202106
:1059E0000148FCF766FC10BD0008014010B50446F4
:1059F000224610210148FCF75CFC10BD0008014064
:105A00007047000070B5002100230F22C47804B352
:105A1000154C246804F4E064C4F5E064210AC1F183
:105A20000403CA40447804FA03F184781440214303
:105A300009010E4C0678A155047804F01F050124D5
:105A4000AC4005786D11AD0005F1E025C5F80041C9
:105A500009E0047804F01F050124AC40044D0678E9
:105A6000761145F8264070BD0CED00E000E400E042
:105A700080E100E002490143024A116070470000E2
:105A80000000FA050CED00E010B503211420FFF72B
:105A900067FE10BD10B51420FFF718FF044604F090
:105AA000030018B903211420FFF72EFF10BD0000DA
:105AB000F0B587B006460525002708210846FFF700
:105AC0004FFE00210D20FFF72DFF80210E20FFF754
:105AD00047FE93208DF8040020208DF8050006A8CD
